:020000040800F2
:10000000C8050020010100089325000869220008A6
:100010009125000809050008DD2A000800000000FD
:10002000000000000000000000000000972500080C
:1000300043050008000000009525000899250008E8
:100040001B0100081B0100081B0100081B01000820
:100050001B0100081B0100081B0100081B01000810
:100060001B0100081B0100081B0100080D0500080A
:100070001B0100081B0100081B0100081B010008F0
:100080001B0100081B0100081B0100081B010008E0
:100090001B0100081B0100081B0100081B010008D0
:1000A0001B0100081B0100081B010008192600089D
:1000B0001B0100081B0100081B0100081B010008B0
:1000C0001B0100081B0100081B0100081B010008A0
:1000D0001B0100081B0100081B010008D12A0008B1
:1000E0001B0100081B0100081B010008DFF80CD0F1
:1000F00000F046F900480047992D0008C805002087
:100100000648804706480047FEE7FEE7FEE7FEE7B1
:10011000FEE7FEE7FEE7FEE7FEE7FEE7152600083E
:10012000ED000008202A04DB203A21FA02F0002129
:10013000704721FA02F3D040C2F1200291400843F7
:1001400019467047D2B201E000F8012B491EFBD2DC
:1001500070470022F6E710B513460A4604461946D2
:10016000FFF7F0FF204610BD2DE9FE4F81EA0304A2
:1001700004F0004421F0004100944FF0000B23F004
:10018000004350EA01045ED052EA03045BD0C3F39B
:100190000A54C1F30A552C44A4F2F3340194A0FB91
:1001A0000254C1F3130141F48011C3F3130343F468
:1001B000801301FB024400FB034E840A970A44EAC1
:1001C000815447EA8357A4FB076802958D0A05FB13
:1001D00007854FEA932C04FB0C542705029D4FEA38
:1001E000065847EA1637B5EB08056EEB070C870E85
:1001F000920E47EA811742EA8312A7FB0201B6EB8F
:100200000B0164EB00042B0D43EA0C335E1844EB46
:100210001C50DA465146E7FB0201C5F313044FEACE
:100220000B3343EA14534FEA0432019C43EA0603BA
:10023000A4F10C040294009CCDE900B400F052F843
:1002400003B0BDE8F08F00200146F9E770B521F05A
:10025000004303430CD0C1F30A550024D5EB040539
:1002600064EB0403D617AD1AB34102DB002001464C
:1002700070BD201841EB025170BD0EB540F2334104
:1002800002910021CDE900110A460B4600F02AF840
:1002900003B000BDC1F30A5210B5C1F3130140F21F
:1002A000FF3341F480119A4201DA002010BD40F280
:1002B00033439A42A2F2334203DC5242FFF732FF49
:1002C00010BD904010BD10B5141E73F1000408DA83
:1002D000401C41F1000192185B411A4301D120F00A
:1002E000010010BD2DE9F04D92469B4611B1B1FAC7
:1002F00081F202E0B0FA80F22032904600F052F82B
:1003000004460F4640EA0A0041EA0B0153465A46AA
:10031000084313D0114653EA010019D0C8F1400236
:100320005046FFF7FFFE05460E46504659464246E8
:1003300000F038F8084305D0012004E02046394693
:10034000BDE8F08D0020054346EAE0762C433743B4
:100350000A986305E40AA0EB08000022FD0A44EABB
:1003600047540A3002D500200146E9E7010510197B
:100370006941DDE9084500196941BDE8F04DA2E792
:10038000064C074D06E0E06840F0010394E80700E2
:1003900098471034AC42F6D3FFF7ACFEF8300008B3
:1003A00018310008202A04DB203A00FA02F100206C
:1003B00070479140C2F1200320FA03F319439040A3
:1003C0007047000070B5044600688168C943C907DA
:1003D00017D1816821F00101816000F01FFD054601
:1003E0000AE000BF00F01AFD401B022804D9206873
:1003F0008068C043C00706D020688068C043C0073B
:10040000F0D0002070BDA06A40F01000A062E06A49
:1004100040F00100E062012070BD10B50146406A65
:10042000826A12F0500F05D0006A026BBDE81040DE
:1004300008461047816A41F4007181620168896849
:10044000C1F3424107290CD1017B51B9816A21F4E2
:1004500080718162816AC90403D4816A41F001011B
:10046000816200F0EFF810BD10B5406A816A41F07A
:1004700040018162C16A41F00401C16200F0E9F803
:1004800010BD10B5406A00F0E3F810BDF8B50026C5
:100490000446009600688168C943C9072DD0816869
:1004A00041F001018160164816490068B0FBF1F087
:1004B00000E0401E00900028FBD100F0AFFC054694
:1004C00016E000BF00F0AAFC401B022810D92068EB
:1004D0008068C043C0070BD0A06A40F01000A06243
:1004E000E06A40F00100E06284F824600120F8BD79
:1004F00020688068C043C007E4D10020F8BD000038
:100500002400002040420F00FEE70000014800F0F8
:100510006DBA00008401002030B590F840500124ED
:10052000AC40C56B6C60046863604368102B036863
:1005300003D099600068C26030BD9A600068C160F5
:1005400030BD704772B6FEE7F8B50024009490F80D
:1005500024202546012A12D0012280F824204A684E
:100560001F23072A0DD20668776B521E02EB820208
:1005700093409F430B6893401F43776319E0022029
:10058000F8BD06680D2A0AD2376BD21F02EB820231
:1005900093409F430B6893401F43376309E0F76A1A
:1005A0000D3A02EB820293409F430B6893401F4336
:1005B000F7620A68072306680A2A0AD3F7680A3A24
:1005C00002EB420293409F438B6893401F43F760C6
:1005D00008E0376902EB420293409F438B689340E7
:1005E0001F4337610A68102A01D0112A20D1124B0B
:1005F00002689A4217D193681B0219D4936843F496
:10060000000393600968102912D10C490C4A09684B
:10061000B1FBF2F101EB8101490000E0491E0091BC
:100620000029FBD104E0816A41F0200181620124AC
:1006300080F824502046F8BD00240140240000200A
:1006400040420F00014901208870704700000020DF
:10065000704770472DE9F0414FF0000704003D4618
:100660007ED0A06A002628B9E66284F8246020467D
:1006700000F07EF82046FFF7A5FEA16AC90600D467
:1006800020B1A06A40F01000A06269E0A16A21F4E4
:10069000885141F00201A1626268E169237B0A434B
:1006A00047EA43010A43A1684FF48077B94209D071
:1006B000012907D05FF0000194F814C0BCF1010FCC
:1006C00002D00AE03946F7E7F3B1A36A43F020030A
:1006D000A362E36A43F00103E3622368D3F804C032
:1006E0002CF4694C4CEA010CC3F804C021688B68F7
:1006F000DFF870C003EA0C0313438B60A168B942B2
:100700000BD0012909D00CE0DFF85CC0A3690CEB29
:1007100043330B4343F40061DFE7218A0D05A5F560
:1007200080152168CB6A23F470032B43CB622168C8
:1007300089680E4B1940914208D1E662A16A21F006
:10074000020141F00101A162BDE8F081A06A20F040
:10075000020040F01000A062E06A40F00100E06298
:100760000120F1E7FDF7E1FF00E0FFFFFE0E1FFFB4
:1007700070B586B000250646009501950295039553
:1007800000681A4988422ED11949886940F40070DE
:100790008861886900F400700490886940F0040062
:1007A00088618869694600F0040004900F20009079
:1007B000032001900F4800F03BFA104C0E48C4E9AA
:1007C00000058020C4E90250800020618000606143
:1007D0002020C4E90605204600F0B2F908B1FFF771
:1007E000B1FE3462666206B070BD000000240140B4
:1007F000001002400008014008000240840100206F
:100800002DE9F047894604463B4900683B4F0E1DE1
:100810009046884201D0B84207D1306810F4702F5A
:1008200003D001252846BDE8F08794F8240001286C
:100830000CD0012084F824002046FFF727FE050095
:100840004FF0000004D084F82400EBE70220EAE730
:10085000A16A40F60162914341F48071A16221686E
:10086000B94218D1326812F4702F14D0A16A41F441
:100870008011A1623168490505D5A16A21F40051B2
:1008800041F48051A162A16AC9040AD5E16A21F04C
:100890000601E16206E0A26A22F48012A2624968BF
:1008A000E9E7E06284F82400216A15488862216A39
:1008B0001448C862216A1448086321686FF0020076
:1008C00008602068816841F4807181602168434636
:1008D0004A464C31206A00F061F920688168C1F312
:1008E00042410729816803D041F48011816099E772
:1008F00041F4A001FAE70000002401400028014073
:100900001B040008830400086904000810B590F86F
:1009100021100022022905D00421816380F82020C3
:10092000012010BD01680B6823F00E030B60016805
:100930000B6823F001030B6090F84030C46B012179
:1009400001FA03F3636080F8211080F8202010463C
:1009500010BD000010B590F821100024022903D02A
:100960000421816301243DE001680A6822F00E023F
:100970000A6001680A6822F001020A601A4A0168E6
:10098000914201D1012121E0174A1432914201D153
:1009900010211BE0144A2832914201D1891515E03B
:1009A000114A3C32914201D189140FE00E4A503273
:1009B000914202D14FF4803108E00B4A64329142F7
:1009C00002D14FF4801101E04FF08071064A083ADD
:1009D0005160012180F82110002180F82010416B26
:1009E00001B18847204610BD080002402DE9F05FA4
:1009F000C16B0C6801680B68D0F840C0042202FA91
:100A00000CF2494DDFF824A1494E4A4FDFF828B1D6
:100A1000DFF828E122422CD05A072AD50A6892062C
:100A200003D40A6822F004020A600168A94201D1D5
:100A3000042219E0514501D1402215E0B14202D112
:100A40004FF4806210E0B94202D14FF480420BE0D3
:100A5000594502D14FF4802206E0714502D14FF48E
:100A6000800201E04FF080622F4908394A60C16A74
:100A70003BE04FF0020808FA0CF818EA040F4FF0B8
:100A800000094FF0010235D05FEA837832D50B6858
:100A90009B0605D40B6823F00A030B6080F8212025
:100AA0000168A94201D1022219E0514501D1202259
:100AB00015E0B14202D14FF4007210E0B94202D108
:100AC0004FF400520BE0594502D14FF4003206E0DA
:100AD000714502D14FF4001201E04FF0007212494B
:100AE00008394A6080F82090816A00291AD0BDE850
:100AF000F05F0847082505FA0CF5254212D01B07C0
:100B000010D50B6823F00E030B6090F84010C36BF8
:100B100002FA01F15960826380F8212080F8209068
:100B2000016BE2E7BDE8F09F080002401C000240B4
:100B30003000024044000240580002406C00024075
:100B400030B528B308C8134914221944B1FBF2F197
:100B50008900C16310498163022141771A6843F615
:100B6000F0718A43D0E900142143D0E902452C43B7
:100B7000214304692143446921438469214311438A
:100B8000196000214163012242770177084630BD98
:100B9000012030BDF8FFFDBF0000024070B50446E3
:100BA00090F82000002501280CD0012084F82000B6
:100BB00094F821600020012E06D084F82000022540
:100BC000284670BD022070BD022684F82160A06313
:100BD0002068066826F0010606602046FFF79CFCA8
:100BE000E06A00282068016802D041F00E0106E0AA
:100BF00021F0040101602068016841F00A010160F0
:100C00002068016841F001010160D9E770B5044630
:100C100000F004F90546601C02D004480078044442
:100C200000F0FCF8401BA042FAD370BD1800002071
:100C30002DE9F84FDFF8B891002409F1040A0AF110
:100C4000040B23460F270BF1040EC9E00125A54034
:100C50002A40AA427DD1674ED1F804C0ACEB060809
:100C6000B44532D014DCBCF1030F3AD009DCBCF13E
:100C7000000F2AD0BCF1010F1CD0BCF1020F31D102
:100C80001DE0BCF1110F17D0BCF1120F2AD119E0F1
:100C9000B8F5881F19D006DCB8F5803F15D0B8F537
:100CA000801F1FD111E0B8F5001F0ED0B8F5041F4A
:100CB00018D10AE0CB6815E0CB681B1D12E0CB68A9
:100CC00008330FE0CB680C330CE08B682BB1012BA1
:100CD0004FF0080303D0456104E0042302E00561FE
:100CE00000E00023FF2A01D8064601E000F10406D7
:100CF0004FEA840501D9A5F12005D6F8008007FA4E
:100D000005FC28EA0C0803FA05F548EA0508C6F8C8
:100D100000804D68ED0062D5374DAE6946F00106A2
:100D2000AE61AD6924F0030605F001050095334D71
:100D300006EB050CDCF80850A607360F07FA06F894
:100D400025EA0805DFF8B880404503D14FF00008D8
:100D500017E044E0DFF8AC80404502D14FF00108D5
:100D60000FE0DFF8A480404502D14FF0020808E010
:100D7000DFF89880404502D14FF0030801E04FF0C2
:100D8000040808FA06F848EA0508CCF808804D6817
:100D9000D9F80060ED034D4601D5164300E09643B7
:100DA0002E604D68DAF80060AD03554601D5164354
:100DB00000E096432E604D68DBF80060ED025D4672
:100DC00001D5164300E096432E604D68DEF80060C2
:100DD000AD02754601D5164300E096432E60641CB3
:100DE0000D682A46E5407FF431AFBDE8F88F00007A
:100DF00000040140000011100010024000000140FA
:100E000000080140000C01400010014000140140A6
:100E10000AB1016170470904FBE7000001488068DE
:100E200070470000180000200248816802781144D1
:100E30008160704718000020074810B5016841F034
:100E400010010160032000F075F8002000F006F8A2
:100E500000F024F8002010BD0020024070B50D4DB8
:100E600004464FF47A712878B1FBF0F00A4909681A
:100E7000B1FBF0F000F062FB48B9102C07D2002261
:100E80002146501E00F036F800206C6070BD012035
:100E900070BD000018000020240000200C4808B598
:100EA000816941F001018161816901F001010091D5
:100EB000C16941F08051C161C06900F0805000906B
:100EC0000448416821F0E06141F00071416008BDD3
:100ED0000010024000000140002809DB00F01F0262
:100EE000012191404009800000F1E020C0F800118C
:100EF00070470000F0B40E4B1B680C46C3F302238E
:100F0000C3F10705042D00D90425191D072901D2B5
:100F1000002300E0DB1E012606FA05F1491E2140F0
:100F200099409E40761E16403143F0BC01F0D7BD7B
:100F30000CED00E0064900F0070208684FF6FF03D9
:100F4000184040EA0220034A10430860704700003E
:100F50000CED00E00000FA052DE9F84305460078A5
:100F6000354CC00754D0E0690026C00008D4E069C1
:100F700040F08050E061E069012600F08050009070
:100F80002E480168C90512D40168804641F4807179
:100F90000160FFF743FF074605E000BFFFF73EFF94
:100FA000C01B642823D8D8F80000C005F6D5206AF5
:100FB00010F4407021D0A98801F4407181421CD006
:100FC000206A1F49012220F440700A6000220A6052
:100FD0002062C00711D0FFF721FF074641F2883891
:100FE00008E000BFFFF71AFFC11B414502D90320EB
:100FF000BDE8F883206A8007F4D5206A696820F488
:101000004070084320621EB1E06920F08050E0612A
:101010002878800705D56068A96820F44040084317
:1010200060602878C00605D56068E96820F4800013
:10103000084360600020DBE70010024000700040C1
:10104000400442422DE9F0470F46050061D0434E6F
:10105000306800F00700B84209D2306820F007007D
:1010600038433060306800F00700B84251D128683A
:101070003B4C810712D5400703D5606840F4E0601F
:1010800060602878000703D5606840F460506060B5
:101090006068A96820F0F000084360602878C00705
:1010A00028D06868012810D02168022810D089074C
:1010B00000292EDA616821F0030101436160FFF726
:1010C000ADFE804641F288390DE021688903EFE7E3
:1010D0008901EDE7FFF7A2FEA0EB0801494502D91F
:1010E0000320BDE8F0876068696800F00C00B0EB91
:1010F000810FEFD1306800F00700B8420BD930689B
:1011000020F0070038433060306800F00700B84234
:1011100001D00120E5E72878400705D56068E96837
:1011200020F4E060084360602878000706D5606816
:10113000296920F4605040EAC100606000F038F88E
:101140006168084AC1F30311515CC8400649086050
:1011500006480068FFF782FE0020C2E70020024038
:1011600000100240E0300008240000201C00002095
:101170000448054900684968044AC1F30221515CEA
:10118000C84070472400002000100240F0300008E2
:101190000448054900684968044AC1F3C221515C0A
:1011A000C84070472400002000100240F0300008C2
:1011B00012A185B00FC98DE80F0014A0144A006871
:1011C00004905168134801F00C03042B10D0082B35
:1011D0000ED1C1F38343C9031DF803000AD551683A
:1011E00004AAC1F34041515C0A4A5043B0FBF1F0FC
:1011F00005B0704708494843FAE7000002030405B8
:10120000060708090A0B0C0D0E0F10100102000052
:101210000010024000127A0000093D002DE9F84F4D
:10122000040070D02078C04DC00749D06868C0F372
:101230008100012807D06868C0F38100022809D125
:101240006868C00306D52868800339D5606800281F
:10125000E7D035E06068B0F5803F0BD010B1B0F555
:10126000A02F11D0286820F480302860286820F44E
:10127000802002E0286840F480302860606890B1E7
:10128000FFF7CCFD06460AE0286840F4802028607D
:10129000F0E700BFFFF7C2FD801B642873D8286801
:1012A0008003F7D50CE0FFF7B9FD064605E000BF67
:1012B000FFF7B4FD801B6428F0D828688003F7D4BA
:1012C00020789A4E80074FF001094FF0000839D579
:1012D000686810F00C0F07D06868C0F3810002281E
:1012E00009D16868C00306D42868800714D520692E
:1012F000012808D110E02069B0B1C6F80090FFF7CE
:101300008DFD074605E00AE1FFF788FDC01B0228B6
:10131000C4D828688007F7D52868616920F0F800EC
:1013200040EAC10028600DE0C6F80080FFF776FDB6
:10133000074604E0FFF772FDC01B022823D8286887
:101340008007F7D4207800072CD57948A169D9B156
:10135000C0F80090FFF762FD074604E0FFF75EFD6E
:10136000C01B02280FD8686A8007F7D571484FF470
:10137000FA510068B0FBF1F0009000BF0098411EE8
:101380000091FAD20EE080E0C0F80080FFF746FD41
:10139000074604E0FFF742FDC01B022875D8686AC3
:1013A0008007F7D42078400760D5E8690027C0009F
:1013B00008D4E86940F08050E861E869012700F04E
:1013C000805000905C480168C90513D401688346C9
:1013D00041F480710160FFF721FD824606E000BF05
:1013E000FFF71CFDA0EB0A0064284ED8DBF80000D4
:1013F000C005F5D5E06801280AD008B1052813D04A
:10140000286A20F001002862286A20F0040002E027
:10141000286A40F001002862E06841F2883B98B1F8
:10142000FFF7FCFC82460BE0286A40F004002862CB
:10143000EEE700BFFFF7F2FCA0EB0A0159455AD8CE
:10144000286A8007F6D50CE0FFF7E8FC824605E045
:10145000FFF7E4FCA0EB0A0159454CD8286A800745
:10146000F6D41FB1E86920F08050E861E06988B3E4
:101470006968C1F38101022944D00228C6F860805E
:1014800004D0FFF7CBFC044638E034E0FFF7C6FC9D
:10149000074604E0FFF7C2FCC01B02282BD82868CF
:1014A0008001F7D4206AB0F5803F05D16868A16853
:1014B00020F4003008436860D4E9080108436968F3
:1014C00021F4741108436860C6F86090FFF7A6FC29
:1014D000044606E025E000BFFFF7A0FC001B022841
:1014E00009D828688001F7D51BE000BFFFF796FCFC
:1014F000001B022802D90320BDE8F88F286880016C
:10150000F4D40EE00128F7D06868226A00F4803134
:10151000914204D1616A00F47010884201D0012028
:10152000EAE70020E8E70000001002400000424225
:1015300080044242240000200070004010B5401E8C
:10154000B0F1807F01D3012010BD4FF0E024606135
:101550000F21601701F0C3FA0020A061072020616D
:10156000002010BD7047704770B590F83C20012AEC
:1015700026D0012480F83C40022280F83D200368F8
:101580005A689D6822F070060A6832435A600D4B13
:1015900002689A4208D0B2F1804F05D00A4B9A42B5
:1015A00002D00A4B9A4204D1496825F080031943BE
:1015B000916080F83D40002180F83C10084670BDE5
:1015C000022070BD002C01400004004000080040D3
:1015D00010B5040003D094F83D0010B107E00120DD
:1015E00010BD002084F83C00204600F01FF80220C7
:1015F00084F83D00211D206801F014F8012084F8D2
:10160000460084F83E0084F83F0084F8400084F8E7
:10161000410084F8420084F8430084F8440084F8D0
:10162000450084F83D00002010BD000000B585B0E5
:101630000021009101910291039101681F48B1F1CD
:10164000804F1AD01E4A914215D1C16941F0040160
:10165000C161C16901F004010491816941F008018F
:1016600081618069694600F008000490901500903F
:101670001448FFF7DDFA05B000BDC16941F0010172
:10168000C161C16901F001010491816941F0040166
:1016900081618069694600F0040004904FF40040C5
:1016A00000900948FFF7C4FA0848416821F44071E6
:1016B00041F0E06141F480714160DCE700100240DC
:1016C00000080040000C01400008014000000140FB
:1016D00070B5044690F83C00012817D0012584F825
:1016E0003C50022084F83D002068826822F0770296
:1016F00022F47F4282600868502830D00DDC202818
:101700004DD005DC98B310283BD148E0022070BDD5
:10171000302844D0402834D139E0602828D07028BF
:1017200006D0B0F5805F2CD0B0F5005F29D10AE07B
:10173000CB68D1E90121206800F0B7FF20688168FB
:1017400041F0770109E0CB68D1E90121206800F080
:10175000ACFF2068816841F48041816011E0CA6873
:101760004968206801F056F85021206807E016E02B
:10177000CA684968206801F08BF86021206800F091
:101780009EFF84F83D50002084F83C0070BDCA687C
:101790004968206801F03EF840212068EFE72268A0
:1017A00001461046EBE7000070B50546007F0128B2
:1017B00022D1254C207870B101281DD10021284666
:1017C00000F07DFBA060296800264E6261688842B7
:1017D00013D9401A19E00021284600F070FB606020
:1017E000012020702868016A21F00A01016228683E
:1017F000016A41F00201016270BD814201D8E068D6
:1018000004E04FF6FF72511A0844E060FEF735FD20
:101810000E4A0F4BFEF7A8FC4FF0FF32FEF716FD05
:10182000FEF738FD607026702868016A21F00A0111
:1018300001622868016A016206480068C16821F0F7
:101840000201C16070BD0000000000209CC420B0F7
:101850007268A13F580000202DE9F041054690F83C
:101860003C000C46012836D0012085F83C008AB3A4
:10187000042A42D02868082A51D0D4E90023E1681C
:10188000066A26F480560662C669076A26F4407620
:1018900046EA03234FF6FF7606EA013123F470434C
:1018A00019434FF4005627F4005306EA02321A4354
:1018B000C16102622868C16921F44061C161286880
:1018C000C169A26841EA0221C161002085F83C009B
:1018D000BDE8F08101E00220FAE7D4E90012E368F4
:1018E000286800F0A9FF2868816921F00C01816156
:1018F00028688169A26811430FE0D4E90012E36807
:10190000286800F0D7FF2868816921F4406181616F
:1019100028688169A26841EA02218161D5E7D4E99A
:101920000027267B016A21F480710162C169036A84
:1019300021F00301394321F0F00731074FF400761D
:1019400047EA116123F4007306EA02221A43C161D7
:1019500002622868C16921F00C01C1612868C1696F
:10196000A2681143B0E710B5040003D094F83D001D
:1019700010B107E0012010BD002084F83C00204693
:1019800000F01EF8022084F83D00211D206800F0C0
:1019900049FE012084F8460084F83E0084F83F00A8
:1019A00084F8400084F8410084F8420084F8430041
:1019B00084F8440084F8450084F83D00002010BD00
:1019C00000B585B00021009101910291039100685A
:1019D000124988421FD11248816941F40061816136
:1019E000816901F400610491816941F00401816120
:1019F0008069694600F0040004904FF48070009004
:101A00000848FFF715F9002211461B20FFF772FA6C
:101A10001B20FFF761FA05B000BD0000002C01405B
:101A2000001002400008014010B5044651B10429DD
:101A30000DD0082910D094F8410094F845200128D1
:101A400011D10EE094F83E0094F84220F7E794F8A4
:101A50003F0094F84320F2E794F8400094F84420C3
:101A6000EDE7012A01D0012010BD022051B1042967
:101A700011D0082918D084F8410084F845000C29B9
:101A80001BD136E084F83E0084F842002068C2682A
:101A900042F0020210E084F83F0084F8430020681E
:101AA000C26842F0040207E084F8400084F8440071
:101AB0002068C26842F00802C2600122206800F07B
:101AC000E7FD0E492068884208D0B0F1804F05D06C
:101AD0000B49884202D00B49884204D1816801F049
:101AE0000701062903D0016841F0010101600020CF
:101AF00010BD2068C26842F01002DDE7002C0140F2
:101B0000000400400008004070B504460068016908
:101B10004FF00005C943890715D4C168C943890737
:101B200011D4E91E016101202077206880698007B7
:101B3000204602D0FFF738FE04E000F0DDF8204632
:101B400000F06CF9257720680169C943490717D46B
:101B5000C168C943490713D46FF004010161022031
:101B600020772068806910F4407F204602D0FFF77C
:101B70001BFE04E000F0C0F8204600F04FF9257786
:101B800020680169C943090716D4C168C943090718
:101B900012D46FF008010161042020772068C06929
:101BA0008007204602D0FFF7FFFD04E000F0A4F814
:101BB000204600F033F9257720680169C943C9063A
:101BC00017D4C168C943C90613D46FF0100101616D
:101BD000082020772068C06910F4407F204602D09A
:101BE000FFF7E2FD04E000F087F8204600F016F968
:101BF000257720680169C943C90708D1C168C9436D
:101C0000C90704D1891E0161204600F057F92068F8
:101C10000169C943090609D4C168C943090605D445
:101C20006FF0800101612046FFF79CFC206801698C
:101C3000C943490609D4C168C943490605D46FF0B0
:101C400040010161204600F04FF920680169C94355
:101C500089060BD4C168C943890607D46FF02001F7
:101C600001612046BDE87040FFF77DBC70BD0000FB
:101C700010B586B000210091019102910391036893
:101C8000194902221948B3F1804F13D0184CA342CE
:101C90000ED18B6943F008038B618969039201F0CF
:101CA000080104914115CDE900126946FEF7C0FF15
:101CB00006B010BD8B6943F008038B6189690392FC
:101CC00001F0080104910821CDE900126946FEF7F0
:101CD000AFFF0848416821F4407141F0E06141F4F0
:101CE00080714160E4E7000000100240000C0140F8
:101CF0000008004000000140704770B5044690F8AD
:101D00003C000D4601280AD0012084F83C0042B175
:101D1000042A18D0082A2AD00C2A4DD139E00220F2
:101D200070BD206800F0D4FC2068816941F0080192
:101D300081612068816921F00401816120688169E5
:101D40002A69114311E0206800F0EAFC20688169EB
:101D500041F4006181612068816921F480618161C1
:101D6000206881692A6941EA0221816124E02068B2
:101D700000F002FD2068C16941F00801C1612068DE
:101D8000C16921F00401C1612068C1692A69114358
:101D900011E0206800F01CFD2068C16941F4006179
:101DA000C1612068C16921F48061C1612068C16995
:101DB0002A6941EA0221C161002084F83C0070BD1B
:101DC00010B5040003D094F83D0010B107E00120E5
:101DD00010BD002084F83C00204600F01EF80220D0
:101DE00084F83D00211D206800F01CFC012084F8CF
:101DF000460084F83E0084F83F0084F8400084F8F0
:101E0000410084F8420084F8430084F8440084F8D8
:101E1000450084F83D00002010BD70477047000069
:101E200010B50446022249B104290ED0082913D066
:101E300094F84100012816D0012010BD94F83E000E
:101E40000128F9D184F83E200FE094F83F000128E2
:101E5000F2D184F83F2008E094F840000128EBD14B
:101E600084F8402001E084F841200122206800F03D
:101E70000FFC0F492068884203D1426C42F40042B3
:101E800042642068884208D0B0F1804F05D00949EB
:101E9000884202D00849884204D1816801F00701D4
:101EA000062903D0016841F001010160002010BD46
:101EB000002C01400004004000080040704702462A
:101EC000002041B1042909D008290AD00C2901D1E8
:101ED0001068006C70471068406B70471068806B2A
:101EE00070471068C06B70477047704770470000BC
:101EF000F8B5026804461068D168536910F00F0FF6
:101F00004FF0000553D003F0010601F490773743FA
:101F10005FD0C20705D0CA0503D5226C42F001028A
:101F20002264420705D5DA0703D0226C42F0020290
:101F30002264820705D5DA0703D0226C42F004023E
:101F40002264020707D501F02002324303D0226C3D
:101F500042F008022264226C002A34D0800604D5A4
:101F6000880602D5204600F0E0FC20684069216C1C
:101F7000C0F38010090700D430B3204600F0BDFC48
:101F80002068416949061BD5416921F04001416142
:101F9000A06BA8B158494163A06BFEF7DBFC002899
:101FA00011D0A06B416B01B0BDE8F040084783063B
:101FB0000FD58B060DD52046BDE8F84000F0B5BC26
:101FC0002046FFF793FFF8BD2046FFF78FFF2564FB
:101FD000F8BD266B2023012E52D1C60650D5CE0661
:101FE0004ED5106850680090506940062AD5A16B04
:101FF000086840680004000CEAD0A68D8642E7D944
:10200000E0858869202818D0D06820F48070D060DE
:102010002068416921F0010141612068416921F096
:102020004001416184F83E3025632068C16821F099
:102030001001C160A06BFEF769FCA08DE18D401A14
:1020400081B219E0A08DE18D401A81B2E08D0028A7
:10205000BED00029BCD0D06820F49070D060206839
:10206000426922F00102426184F83E302563206813
:10207000C26822F01002C2602046FFF736FFF8BDAA
:1020800005062BD50D0629D594F83D002128F6D15B
:10209000A068B0F5805F01D12069B0B1206A411C11
:1020A0002162216800784860E08C401E0004000C2A
:1020B000E084E4D12068C16821F08001C16020681B
:1020C000C16841F04001C160F8BD206A0088C0F3DA
:1020D00008005060206A801C2062E5E74006F3D5C6
:1020E0004806F1D5D168204621F04001D16084F83E
:1020F0003D3000F09BF8F8BDEB28000870B50400F7
:1021000004D094F83D00002510B106E0012070BD18
:1021100084F83C50204600F023F8242084F83D0049
:102120002068C16821F40051C160204600F058FCCD
:102130002068016921F4904101612068416921F022
:102140002A0141612068C16841F40051C1602564E1
:10215000202084F83D0084F83E00002070BD00007F
:1021600030B585B000240094019402940394006873
:10217000184988422CD11848C16941F48021C161B5
:10218000C16901F480210491816941F008018161F4
:102190008069124D00F0080004904FF480600090B8
:1021A000022001900320039069462846FEF740FD77
:1021B000E814CDE90004694628460294FEF738FD8C
:1021C000002211462720FEF795FE2720FEF784FE09
:1021D00005B030BD0048004000100240000C014036
:1021E00090F83E30202B0ED159B152B190F83C30CE
:1021F000012B08D0012380F83C300023036300F05A
:102200004BBC012070470220704700000549006860
:102210000968884204D1012203490248FFF7E0BF60
:1022200070470000300100200300002070470000CC
:1022300070B501220A4DD40221462846FEF7E8FD7A
:102240000A2000F02FFD002221462846FEF7E0FD7F
:1022500004480068C16841F00201C16070BD00001F
:102260000008014058000020FEE70000FEB50024F1
:102270002048009401941E490294016089158160F0
:10228000012505730475042606614FF4602144603E
:10229000C161FEF7DFF908B172B6FEE7CDE900458E
:1022A000694614480294FEF74FF908B172B6FEE78A
:1022B0000224CDE9005469460E48FEF745F908B1FD
:1022C00072B6FEE70094032469460A480194FEF7BB
:1022D0003BF908B172B6FEE7CDE90046694605480C
:1022E000FEF732F9002801D072B6FEE7FEBD00000D
:1022F00000240140280000202DE9F04385B000248F
:1023000021480094019402940394816941F02001D2
:102310008161816901F020010491816941F004012A
:102320008161816901F004010491816941F0080132
:1023300081618069DFF8548000F008004FF40B657C
:102340000490002229464046FEF762FDDFF84090E7
:102350004CF2F307002239464846FEF759FD009536
:10236000022601250396CDE9015469464046FEF751
:102370005FFC00970396CDE9015469464846FEF795
:1023800057FC05B0BDE8F083001002400008014092
:10239000000C014010B586B000241948059404943F
:1023A0000094019402941549039401604721C0E907
:1023B00001144FF6FE71C0E9031444618461FFF714
:1023C000D2FA08B172B6FEE7049404A90C48059449
:1023D000FFF7CAF808B172B6FEE70120CDE9004068
:1023E00002940022694606480394FFF735FA002854
:1023F00001D072B6FEE706B010BD0000002C01400F
:102400005800002010B592B000240B940C940D9449
:102410000E940F9410940794089409941C21684614
:102420000A94FDF796FE27484FF08041016047214E
:10243000C0E9011440F28F11C0E903148461FFF771
:10244000C7F808B172B6FEE74FF480500B900BA9A5
:102450001C48FFF73DF908B172B6FEE71948FFF7CF
:1024600082FA08B172B6FEE71648FFF7A9FC08B178
:1024700072B6FEE70F940FA912481094FFF774F894
:1024800008B172B6FEE70120CDE9074009940022A9
:1024900007A90C480A94FFF7DFF908B172B6FEE706
:1024A0006020CDE9000402940422694605480494A2
:1024B000FFF723FC08B172B6FEE70248FFF7D8FB2E
:1024C00012B010BDA000002010B592B000240B94F3
:1024D0000C940D940E940F941094079408940994FE
:1024E0001C2168460A94FDF734FE284826490160FD
:1024F0004721C0E9011440F28F11C0E9031484613F
:10250000FFF766F808B172B6FEE74FF480500B9003
:102510000BA91E48FFF7DCF808B172B6FEE71B48AE
:10252000FFF721FA08B172B6FEE71848FFF748FC3A
:1025300008B172B6FEE70F940FA914481094FFF784
:1025400013F808B172B6FEE70120CDE907400994FF
:10255000082207A90D480A94FFF77EF908B172B660
:10256000FEE76020CDE9000402940C22694607488A
:102570000494FFF7C2FB08B172B6FEE70348FFF709
:1025800077FB12B010BD000000080040E8000020FA
:10259000FEE7FEE770477047FEF746BC30B593B0E4
:1025A00028216846FDF7D5FD14210AA8FDF7D1FDC5
:1025B000002501200F9510951195010412958DE8C5
:1025C000230004904FF4E010CDE908100224079492
:1025D0006846FEF723FE08B172B6FEE70AA90F208F
:1025E00081E831004FF48060CDE90D0502210AA891
:1025F000FEF728FD08B172B6FEE74FF400401190D7
:102600000F940FA8FEF7A8FC002801D072B6FEE7D1
:1026100013B030BD704700000148FFF775BA0000E5
:1026200058000020F0B50268164B174C174D4FF0BC
:102630008047984205D0B84203D0A04201D0A842BA
:1026400003D122F070064A683243984205D0B8425E
:1026500003D0A04201D0A84203D122F44074CA683A
:1026600022434C6922F08002224302608A68C262DF
:102670000A688262984201D10969016301214161BE
:10268000F0BD0000002C01400004004000080040A4
:1026900010B501F01F030121046A99408C430462C4
:1026A000016A9A401143016210BD10B5846842EA84
:1026B000032224F47F440A432243826010BD8268CF
:1026C00022F070020A4342F0070181607047000067
:1026D00030B5026A22F001020262026A436884692C
:1026E00024F073050C682C4322F002058A682A4303
:1026F0000A4DA8420BD122F00805CA6823F44073A2
:102700002A434D6922F004021D438B692B43436029
:10271000846149684163026230BD0000002C0140C1
:1027200030B5026A22F010020262026A43688469CC
:102730000D6824F4E64444EA05248D6822F0200262
:1027400042EA05120B4DA8420ED1CD6822F080025C
:1027500042EA05124D6923F4406343EA85038D691B
:1027600022F0400243EA8503436084614968816343
:10277000026230BD002C014030B5026A22F4807242
:102780000262036A4268C46923F4007324F073058B
:102790000C682C438D6843EA05230C4DA8420ED1EA
:1027A000CD6823F4006343EA05234D6922F44052C7
:1027B00042EA05128D6923F4806342EA0512426001
:1027C000C4614968C163036230BD0000002C014050
:1027D00030B5026A22F480520262046A4268C36918
:1027E0000D6823F4E64343EA05238D6824F400547E
:1027F00044EA0534064DA84204D14D6922F48042D2
:1028000042EA85124260C36149680164046230BDD6
:10281000002C014010B5036A046A24F0010404622C
:10282000846924F0F00444EA021423F00A020A4303
:102830008461026210BD000070B5046A24F00104D6
:1028400004628469056A0F4EB04208D0B0F1804F2F
:1028500005D00D4EB04202D00C4EB04203D124F050
:102860000304144301E044F001041A0724F0F004C7
:1028700044EA126225F00A0301F00A011943826159
:10288000016270BD002C01400004004000080040BF
:1028900010B5036A23F0100303628369046A23F40A
:1028A000704343EA023224F0A00343EA011182613B
:1028B000016210BD30B5046A24F01004046284691A
:1028C000056A24F4407444EA022222F470444FF66C
:1028D000FF7202EA03322243A02425F0A00304EA97
:1028E000011119438261016230BD10B5406A0021B7
:1028F000C185C184FFF7FAFA10BD0168CA6822F4E5
:102900009072CA6001684A6922F001024A61016B53
:10291000012904D10168CA6822F01002CA6020218E
:1029200080F83E1000210163704708B590F83E1012
:10293000222901D0022008BD82684FF480539A42B8
:1029400001D1016921B1816A9A421BD04AB10AE0E2
:102950000268816A5268C2F308020A80816A891C8F
:1029600008E0026972B10268526802F07F020A70E0
:10297000816A491C8162C18D491E0904090CC18507
:1029800003D019E002685268F1E70168CA6822F0D2
:102990002002CA600168CA6822F48072CA600168B5
:1029A0004A6922F001024A61202180F83E10016B41
:1029B000012903D0FFF72AFC002008BD0021016394
:1029C0000168CA6822F01002CA6001680A68D2066B
:1029D00002D50A6849680091818DFFF786FAEBE716
:1029E00070B5044600680169E26821F44051114362
:1029F00001612169A0680843616908432168CA68C8
:102A000041F20C639A430243CA6020684169A2699B
:102A100021F44071114341611E492068884202D16E
:102A2000FEF7B6FB01E0FEF7A3FB00EBC00101EBF4
:102A30000012606864218000B2FBF0F3B3FBF1F395
:102A40006FF018067343B2FBF0F5B2FBF0F605EB3E
:102A50008305322303EB0515B5FBF1F5B6FBF1F663
:102A600005F0F00505EB0615B2FBF0F6B2FBF0F051
:102A7000B0FBF1F06FF01802504306EB800003EB5F
:102A80000010B0FBF1F0216800F00F0028448860CE
:102A900070BD00000038014081628285C28500213E
:102AA0000164222280F83E2080F83C100168CA6848
:102AB00042F48072CA6001684A6942F001024A61C8
:102AC0000068C16841F02001C1600020704700002B
:102AD0000148FFF70DBA000030010020FEE70907AA
:102AE000090E002804DB00F1E02080F80014704794
:102AF00000F00F0000F1E02080F8141D704702E0A4
:102B000008C8121F08C1002AFAD170477047002078
:102B100001E001C1121F002AFBD17047104910B516
:102B20000968C82088630E494831096808640D4C5B
:102B3000002210212046FEF76BF9012220212046B9
:102B4000FEF766F9084C00224FF480412046FEF75C
:102B50005FF920460122BDE81040D103FEF758B9C5
:102B6000A000002000080140000C014070B5244D79
:102B700004460022F0212846FEF74AF904F0F0014D
:102B800001222846FEF744F91E4E002280213046DD
:102B9000FEF73EF9002201212846FEF739F901220D
:102BA00002212846FEF734F9002202212846FEF7CA
:102BB0002FF90220FEF72AF80022F0212846FEF71E
:102BC00027F92007010E01222846FEF721F90022ED
:102BD00080213046FEF71CF9002201212846FEF72D
:102BE00017F9012202212846FEF712F900220221DC
:102BF0002846FEF70DF9BDE870400220FEF706B842
:102C0000000C01400008014070B5244D044600222C
:102C1000F0212846FEF7FCF804F0F00101222846D6
:102C2000FEF7F6F81E4E012280213046FEF7F0F83E
:102C3000002201212846FEF7EBF801220221284656
:102C4000FEF7E6F8002202212846FEF7E1F802200E
:102C5000FDF7DCFF0022F0212846FEF7D9F8200717
:102C6000010E01222846FEF7D3F8012280213046CA
:102C7000FEF7CEF8002201212846FEF7C9F801220E
:102C800002212846FEF7C4F8002202212846FEF75A
:102C9000BFF8BDE870400220FDF7B8BF000C01404E
:102CA00000080140044900220B685A6209684A6A18
:102CB0008242FCD3704700005800002010B50C4C35
:102CC000012210212046FEF7A3F8002220212046F1
:102CD000FEF79EF8074C012291032046FEF798F874
:102CE0002046BDE8104000224FF40041FEF790B8A6
:102CF00000080140000C014029B1012905D1C03074
:102D0000C0B2FFF733BF8030FAE7704710B51E201E
:102D1000FDF77CFF3320FFF729FF3220FFF726FF66
:102D20002820FFF723FF0820FFF720FF0120FFF7EF
:102D30001DFF0620FFF71AFFBDE810400E20FFF729
:102D400015BF000010B5044602E000BFFFF75CFFAE
:102D500014F8010B0028F9D110BD000010B50C4C7F
:102D6000002220212046FEF753F8002210212046A1
:102D7000FEF74EF8074C012291032046FEF748F873
:102D80002046BDE8104000224FF40041FEF740B855
:102D900000080140000C014008B5FEF74DF8FFF7B0
:102DA000FDFBFFF7A9FA8548416941F00101416146
:102DB0004069002200F00100009011460B20FEF750
:102DC00099F80B20FEF788F8FFF750FAFFF7E2FAC0
:102DD000FFF718FB7B487A49002501604FF4165134
:102DE000C0E901150421C560C0E904518561C561D0
:102DF000FFF784F908B172B6FEE7FFF765FBFFF74E
:102E000085FF70480021D838FEF70EFE6D49042278
:102E10004431A1F5A670FDF7F3FC01226A49694827
:102E2000FFF7DEF9674804219038FEF7F9FF65489F
:102E30000C214838FEF7F4FFDFF88C81DFF884A11D
:102E400008F111040AF1440A4FF47A7B4FF00109AA
:102E5000AAF1D407A4F11406FFF7EAF96420FDF7FC
:102E6000D5FE7078092805D80120FFF77FFE00F015
:102E70000BF913E00F284FF0010003D8FFF776FE9F
:102E800052A009E0FFF772FE52A0FFF75BFF01219D
:102E90000020FFF731FF54A0FFF754FF98F800001F
:102EA00033280AD034280BD031280CD032280DD04A
:102EB00035280ED0362813D017E0FFF74FFF14E067
:102EC00000F09AF811E0FFF7F9FE0EE0FFF726FE9A
:102ED0000BE03069B0F5C37F07DA00F0C1F804E019
:102EE00030690A2801DD00F0A7F8B07898B3B57012
:102EF000DAF80020594650468A4201D3257001E095
:102F000084F8009042688A4201D3657001E084F839
:102F1000019082685A4501D3A57001E084F80290BF
:102F2000DAF80C0040F6C411884201D3E57001E0E4
:102F300084F803902078012801D068B110E061780E
:102F400001290DD1A17801290AD1E178012907D100
:102F5000FFF7E4FD1CE022E0617809B9A17811B126
:102F6000E17819B104E0E07828B31EE0A27812B14C
:102F700062781AB104E06278D2B101E0A278D2B1ED
:102F800098B1A9B16078B0B1A078A0B100F07CF898
:102F90000C4904224431A1F5A670FDF731FC3968D3
:102FA000306948633968886356E7FFF7D7FEEFE773
:102FB00000F022F8ECE7FFF781FEE9E7001002409D
:102FC0000048004030010020030000205761726E6D
:102FD000696E67002020202D2D2D202020202D2DF2
:102FE0002D2020200000000020202020202D2D2D2D
:102FF0002D2D20202020200010B50D4C0122102165
:103000002046FDF705FF002220212046FDF700FFA6
:10301000084C00224FF400412046FDF7F9FE2046FF
:10302000BDE8104000224FF48041FDF7F1BE0000E2
:1030300000080140000C0140074908691438086184
:1030400006490968886305494831096808640249E6
:103050003820C91C0870704700000020A000002024
:1030600007490869143008610649096888630549F9
:1030700048310968086402493820C91C0870704743
:1030800000000020A000002010B5124C00221021EA
:103090002046FDF7BDFE002220212046FDF7B8FEA8
:1030A0000D4C00224FF480412046FDF7B1FE002276
:1030B0004FF400412046FDF7ABFE084C05E000BF91
:1030C000FFF7B6F86420FDF7A1FD60780928F7D96D
:1030D00010BD000000080140000C0140000000206D
:1030E00000000000000000000102030406070809B8
:1030F0000000000001020304183100080000002055
:1031000028000000FE2A00084031000828000020A6
:10311000A00500000E2B00080000000000000000C9
:103120000000000000000000F401000000000000AA
:103130000100000010000000000000000024F40066
:04000005080000ED02
:00000001FF
